{
  "_format": "hh-sol-artifact-1",
  "contractName": "FanPool",
  "sourceName": "contracts/FanPool.sol",
  "abi": [
    {
      "anonymous": false,
      "inputs": [
        {
          "indexed": false,
          "internalType": "string",
          "name": "",
          "type": "string"
        },
        {
          "indexed": false,
          "internalType": "uint256",
          "name": "",
          "type": "uint256"
        }
      ],
      "name": "MyLog",
      "type": "event"
    },
    {
      "stateMutability": "payable",
      "type": "fallback"
    },
    {
      "inputs": [
        {
          "internalType": "uint256",
          "name": "",
          "type": "uint256"
        }
      ],
      "name": "allCreators",
      "outputs": [
        {
          "internalType": "address",
          "name": "",
          "type": "address"
        }
      ],
      "stateMutability": "view",
      "type": "function"
    },
    {
      "inputs": [
        {
          "internalType": "address",
          "name": "creatorAddress",
          "type": "address"
        }
      ],
      "name": "checkPoolBalanceByCreator",
      "outputs": [
        {
          "internalType": "uint256",
          "name": "",
          "type": "uint256"
        }
      ],
      "stateMutability": "view",
      "type": "function"
    },
    {
      "inputs": [
        {
          "internalType": "address",
          "name": "creatorAddress",
          "type": "address"
        }
      ],
      "name": "checkPoolBalanceByUser",
      "outputs": [
        {
          "internalType": "uint256",
          "name": "",
          "type": "uint256"
        }
      ],
      "stateMutability": "view",
      "type": "function"
    },
    {
      "inputs": [
        {
          "internalType": "address",
          "name": "",
          "type": "address"
        },
        {
          "internalType": "address",
          "name": "",
          "type": "address"
        }
      ],
      "name": "creatorPool",
      "outputs": [
        {
          "internalType": "uint256",
          "name": "",
          "type": "uint256"
        }
      ],
      "stateMutability": "view",
      "type": "function"
    },
    {
      "inputs": [
        {
          "internalType": "address",
          "name": "",
          "type": "address"
        }
      ],
      "name": "creators",
      "outputs": [
        {
          "internalType": "string",
          "name": "Name",
          "type": "string"
        },
        {
          "internalType": "string",
          "name": "SocialUrl",
          "type": "string"
        },
        {
          "internalType": "uint256",
          "name": "TotalDeposits",
          "type": "uint256"
        },
        {
          "internalType": "uint256",
          "name": "TotalYieldPaid",
          "type": "uint256"
        },
        {
          "internalType": "bool",
          "name": "IsExist",
          "type": "bool"
        }
      ],
      "stateMutability": "view",
      "type": "function"
    },
    {
      "inputs": [
        {
          "internalType": "address",
          "name": "creatorAddress",
          "type": "address"
        },
        {
          "internalType": "address payable",
          "name": "_cEtherContract",
          "type": "address"
        }
      ],
      "name": "deposit",
      "outputs": [
        {
          "internalType": "bool",
          "name": "",
          "type": "bool"
        }
      ],
      "stateMutability": "payable",
      "type": "function"
    },
    {
      "inputs": [],
      "name": "getAllPools",
      "outputs": [
        {
          "internalType": "address[]",
          "name": "",
          "type": "address[]"
        }
      ],
      "stateMutability": "view",
      "type": "function"
    },
    {
      "inputs": [],
      "name": "getContractBalance",
      "outputs": [
        {
          "internalType": "uint256",
          "name": "",
          "type": "uint256"
        }
      ],
      "stateMutability": "view",
      "type": "function"
    },
    {
      "inputs": [
        {
          "internalType": "address",
          "name": "creatorAddress",
          "type": "address"
        }
      ],
      "name": "getPoolByCreator",
      "outputs": [
        {
          "internalType": "address",
          "name": "cAddress",
          "type": "address"
        },
        {
          "internalType": "string",
          "name": "name",
          "type": "string"
        },
        {
          "internalType": "string",
          "name": "socialUrl",
          "type": "string"
        },
        {
          "internalType": "uint256",
          "name": "totalDeposits",
          "type": "uint256"
        },
        {
          "internalType": "uint256",
          "name": "totalYieldPaid",
          "type": "uint256"
        },
        {
          "internalType": "uint256",
          "name": "maxWithdrawalAvailable",
          "type": "uint256"
        },
        {
          "internalType": "uint256",
          "name": "interestGenerated",
          "type": "uint256"
        }
      ],
      "stateMutability": "view",
      "type": "function"
    },
    {
      "inputs": [],
      "name": "getPoolsSubscribedByUser",
      "outputs": [
        {
          "internalType": "address[]",
          "name": "",
          "type": "address[]"
        }
      ],
      "stateMutability": "view",
      "type": "function"
    },
    {
      "inputs": [
        {
          "internalType": "string",
          "name": "name",
          "type": "string"
        },
        {
          "internalType": "string",
          "name": "socialUrl",
          "type": "string"
        }
      ],
      "name": "onBoardCreator",
      "outputs": [
        {
          "internalType": "bool",
          "name": "",
          "type": "bool"
        }
      ],
      "stateMutability": "nonpayable",
      "type": "function"
    },
    {
      "inputs": [
        {
          "internalType": "address",
          "name": "",
          "type": "address"
        },
        {
          "internalType": "uint256",
          "name": "",
          "type": "uint256"
        }
      ],
      "name": "userSubscribedPool",
      "outputs": [
        {
          "internalType": "address",
          "name": "",
          "type": "address"
        }
      ],
      "stateMutability": "view",
      "type": "function"
    },
    {
      "inputs": [
        {
          "internalType": "address",
          "name": "creatorAddress",
          "type": "address"
        },
        {
          "internalType": "uint256",
          "name": "amount",
          "type": "uint256"
        },
        {
          "internalType": "address payable",
          "name": "_cEtherContract",
          "type": "address"
        }
      ],
      "name": "withdraw",
      "outputs": [],
      "stateMutability": "nonpayable",
      "type": "function"
    },
    {
      "stateMutability": "payable",
      "type": "receive"
    }
  ],
  "bytecode": "0x608060405234801561001057600080fd5b506121cf806100206000396000f3fe6080604052600436106100c65760003560e01c80636f9fb98a1161007f578063888e5d9e11610059578063888e5d9e146102c2578063933166e1146102ff578063d88ff1f414610340578063f9609f081461036b576100cd565b80636f9fb98a14610217578063734ea2aa146102425780638559dc431461027f576100cd565b80632e902e58146100cf57806337fe8018146100fa57806343ff1ee7146101375780635636a89e146101745780635fc69b52146101b157806369328dec146101ee576100cd565b366100cd57005b005b3480156100db57600080fd5b506100e461039b565b6040516100f19190611ce5565b60405180910390f35b34801561010657600080fd5b50610121600480360381019061011c919061184c565b610466565b60405161012e9190611d07565b60405180910390f35b34801561014357600080fd5b5061015e60048036038101906101599190611720565b6105b5565b60405161016b9190611e8d565b60405180910390f35b34801561018057600080fd5b5061019b60048036038101906101969190611720565b61063b565b6040516101a89190611e8d565b60405180910390f35b3480156101bd57600080fd5b506101d860048036038101906101d39190611749565b6106c1565b6040516101e59190611e8d565b60405180910390f35b3480156101fa57600080fd5b50610215600480360381019061021091906117fd565b6106e6565b005b34801561022357600080fd5b5061022c610a6b565b6040516102399190611e8d565b60405180910390f35b34801561024e57600080fd5b50610269600480360381019061026491906117c1565b610a73565b6040516102769190611c4d565b60405180910390f35b34801561028b57600080fd5b506102a660048036038101906102a19190611720565b610ac1565b6040516102b99796959493929190611c68565b60405180910390f35b3480156102ce57600080fd5b506102e960048036038101906102e491906118b8565b610d58565b6040516102f69190611c4d565b60405180910390f35b34801561030b57600080fd5b5061032660048036038101906103219190611720565b610d97565b604051610337959493929190611d22565b60405180910390f35b34801561034c57600080fd5b50610355610eea565b6040516103629190611ce5565b60405180910390f35b61038560048036038101906103809190611785565b610f78565b6040516103929190611d07565b60405180910390f35b6060600360003373ffffffffffffffffffffffffffffffffffffffff1673ffffffffffffffffffffffffffffffffffffffff16815260200190815260200160002080548060200260200160405190810160405280929190818152602001828054801561045c57602002820191906000526020600020905b8160009054906101000a900473ffffffffffffffffffffffffffffffffffffffff1673ffffffffffffffffffffffffffffffffffffffff1681526020019060010190808311610412575b5050505050905090565b6000806040518060a001604052808581526020018481526020016000815260200160008152602001600115158152509050806000803373ffffffffffffffffffffffffffffffffffffffff1673ffffffffffffffffffffffffffffffffffffffff16815260200190815260200160002060008201518160000190805190602001906104f29291906115c1565b50602082015181600101908051906020019061050f9291906115c1565b50604082015181600201556060820151816003015560808201518160040160006101000a81548160ff0219169083151502179055509050506001339080600181540180825580915050600190039060005260206000200160009091909190916101000a81548173ffffffffffffffffffffffffffffffffffffffff021916908373ffffffffffffffffffffffffffffffffffffffff160217905550600191505092915050565b6000600260008373ffffffffffffffffffffffffffffffffffffffff1673ffffffffffffffffffffffffffffffffffffffff16815260200190815260200160002060003373ffffffffffffffffffffffffffffffffffffffff1673ffffffffffffffffffffffffffffffffffffffff168152602001908152602001600020549050919050565b6000600260008373ffffffffffffffffffffffffffffffffffffffff1673ffffffffffffffffffffffffffffffffffffffff16815260200190815260200160002060003373ffffffffffffffffffffffffffffffffffffffff1673ffffffffffffffffffffffffffffffffffffffff168152602001908152602001600020549050919050565b6002602052816000526040600020602052806000526040600020600091509150505481565b600073ffffffffffffffffffffffffffffffffffffffff168373ffffffffffffffffffffffffffffffffffffffff161415610756576040517f08c379a000000000000000000000000000000000000000000000000000000000815260040161074d90611e3f565b60405180910390fd5b600082141561079a576040517f08c379a000000000000000000000000000000000000000000000000000000000815260040161079190611e1f565b60405180910390fd5b6000808473ffffffffffffffffffffffffffffffffffffffff1673ffffffffffffffffffffffffffffffffffffffff16815260200190815260200160002060040160009054906101000a900460ff16610828576040517f08c379a000000000000000000000000000000000000000000000000000000000815260040161081f90611d83565b60405180910390fd5b8273ffffffffffffffffffffffffffffffffffffffff163373ffffffffffffffffffffffffffffffffffffffff16141561086157610921565b81600260008573ffffffffffffffffffffffffffffffffffffffff1673ffffffffffffffffffffffffffffffffffffffff16815260200190815260200160002060003373ffffffffffffffffffffffffffffffffffffffff1673ffffffffffffffffffffffffffffffffffffffff168152602001908152602001600020541015610920576040517f08c379a000000000000000000000000000000000000000000000000000000000815260040161091790611dff565b60405180910390fd5b5b81600260008573ffffffffffffffffffffffffffffffffffffffff1673ffffffffffffffffffffffffffffffffffffffff16815260200190815260200160002060003373ffffffffffffffffffffffffffffffffffffffff1673ffffffffffffffffffffffffffffffffffffffff16815260200190815260200160002060008282546109ad9190611fb4565b92505081905550816000808573ffffffffffffffffffffffffffffffffffffffff1673ffffffffffffffffffffffffffffffffffffffff1681526020019081526020016000206002016000828254610a059190611fb4565b92505081905550610a1882600083611258565b5060003390508073ffffffffffffffffffffffffffffffffffffffff166108fc849081150290604051600060405180830381858888f19350505050158015610a64573d6000803e3d6000fd5b5050505050565b600047905090565b60036020528160005260406000208181548110610a8f57600080fd5b906000526020600020016000915091509054906101000a900473ffffffffffffffffffffffffffffffffffffffff1681565b600060608060008060008060008060008a73ffffffffffffffffffffffffffffffffffffffff1673ffffffffffffffffffffffffffffffffffffffff1681526020019081526020016000206040518060a0016040529081600082018054610b2790612084565b80601f0160208091040260200160405190810160405280929190818152602001828054610b5390612084565b8015610ba05780601f10610b7557610100808354040283529160200191610ba0565b820191906000526020600020905b815481529060010190602001808311610b8357829003601f168201915b50505050508152602001600182018054610bb990612084565b80601f0160208091040260200160405190810160405280929190818152602001828054610be590612084565b8015610c325780601f10610c0757610100808354040283529160200191610c32565b820191906000526020600020905b815481529060010190602001808311610c1557829003601f168201915b5050505050815260200160028201548152602001600382015481526020016004820160009054906101000a900460ff1615151515815250509050889750806000015196508060200151955080604001519450806060015193508873ffffffffffffffffffffffffffffffffffffffff163373ffffffffffffffffffffffffffffffffffffffff161415610ccc576064915060649250610d4c565b600260008a73ffffffffffffffffffffffffffffffffffffffff1673ffffffffffffffffffffffffffffffffffffffff16815260200190815260200160002060003373ffffffffffffffffffffffffffffffffffffffff1673ffffffffffffffffffffffffffffffffffffffff1681526020019081526020016000205492505b50919395979092949650565b60018181548110610d6857600080fd5b906000526020600020016000915054906101000a900473ffffffffffffffffffffffffffffffffffffffff1681565b6000602052806000526040600020600091509050806000018054610dba90612084565b80601f0160208091040260200160405190810160405280929190818152602001828054610de690612084565b8015610e335780601f10610e0857610100808354040283529160200191610e33565b820191906000526020600020905b815481529060010190602001808311610e1657829003601f168201915b505050505090806001018054610e4890612084565b80601f0160208091040260200160405190810160405280929190818152602001828054610e7490612084565b8015610ec15780601f10610e9657610100808354040283529160200191610ec1565b820191906000526020600020905b815481529060010190602001808311610ea457829003601f168201915b5050505050908060020154908060030154908060040160009054906101000a900460ff16905085565b60606001805480602002602001604051908101604052809291908181526020018280548015610f6e57602002820191906000526020600020905b8160009054906101000a900473ffffffffffffffffffffffffffffffffffffffff1673ffffffffffffffffffffffffffffffffffffffff1681526020019060010190808311610f24575b5050505050905090565b60008073ffffffffffffffffffffffffffffffffffffffff168373ffffffffffffffffffffffffffffffffffffffff161415610fe9576040517f08c379a0000000000000000000000000000000000000000000000000000000008152600401610fe090611e3f565b60405180910390fd5b600034141561102d576040517f08c379a000000000000000000000000000000000000000000000000000000000815260040161102490611e1f565b60405180910390fd5b6000808473ffffffffffffffffffffffffffffffffffffffff1673ffffffffffffffffffffffffffffffffffffffff16815260200190815260200160002060040160009054906101000a900460ff166110bb576040517f08c379a00000000000000000000000000000000000000000000000000000000081526004016110b290611d83565b60405180910390fd5b34600260008573ffffffffffffffffffffffffffffffffffffffff1673ffffffffffffffffffffffffffffffffffffffff16815260200190815260200160002060003373ffffffffffffffffffffffffffffffffffffffff1673ffffffffffffffffffffffffffffffffffffffff16815260200190815260200160002060008282546111479190611f5e565b92505081905550346000808573ffffffffffffffffffffffffffffffffffffffff1673ffffffffffffffffffffffffffffffffffffffff168152602001908152602001600020600201600082825461119f9190611f5e565b92505081905550600360003373ffffffffffffffffffffffffffffffffffffffff1673ffffffffffffffffffffffffffffffffffffffff168152602001908152602001600020839080600181540180825580915050600190039060005260206000200160009091909190916101000a81548173ffffffffffffffffffffffffffffffffffffffff021916908373ffffffffffffffffffffffffffffffffffffffff16021790555061125082346113d1565b905092915050565b60008082905060006001151585151514156112ff578173ffffffffffffffffffffffffffffffffffffffff1663db006a75876040518263ffffffff1660e01b81526004016112a69190611e8d565b602060405180830381600087803b1580156112c057600080fd5b505af11580156112d4573d6000803e3d6000fd5b505050506040513d601f19601f820116820180604052508101906112f891906118e1565b905061138d565b8173ffffffffffffffffffffffffffffffffffffffff1663852a12e3876040518263ffffffff1660e01b81526004016113389190611e8d565b602060405180830381600087803b15801561135257600080fd5b505af1158015611366573d6000803e3d6000fd5b505050506040513d601f19601f8201168201806040525081019061138a91906118e1565b90505b7f8d1cced004452bd270777a8c670f9f7e7c4fdde56f2db331fe289d39dc2624ad816040516113bc9190611da3565b60405180910390a16001925050509392505050565b60008083905060008173ffffffffffffffffffffffffffffffffffffffff1663bd6d894d6040518163ffffffff1660e01b8152600401602060405180830381600087803b15801561142157600080fd5b505af1158015611435573d6000803e3d6000fd5b505050506040513d601f19601f8201168201806040525081019061145991906118e1565b90507f8d1cced004452bd270777a8c670f9f7e7c4fdde56f2db331fe289d39dc2624ad8160405161148a9190611dd1565b60405180910390a160008273ffffffffffffffffffffffffffffffffffffffff1663ae9d70b06040518163ffffffff1660e01b8152600401602060405180830381600087803b1580156114dc57600080fd5b505af11580156114f0573d6000803e3d6000fd5b505050506040513d601f19601f8201168201806040525081019061151491906118e1565b90507f8d1cced004452bd270777a8c670f9f7e7c4fdde56f2db331fe289d39dc2624ad816040516115459190611e5f565b60405180910390a18273ffffffffffffffffffffffffffffffffffffffff16631249c58b866203d090906040518363ffffffff1660e01b81526004016000604051808303818589803b15801561159a57600080fd5b5088f11580156115ae573d6000803e3d6000fd5b5050505050506001935050505092915050565b8280546115cd90612084565b90600052602060002090601f0160209004810192826115ef5760008555611636565b82601f1061160857805160ff1916838001178555611636565b82800160010185558215611636579182015b8281111561163557825182559160200191906001019061161a565b5b5090506116439190611647565b5090565b5b80821115611660576000816000905550600101611648565b5090565b600061167761167284611ed9565b611ea8565b90508281526020810184848401111561168f57600080fd5b61169a848285612042565b509392505050565b6000813590506116b181612154565b92915050565b6000813590506116c68161216b565b92915050565b600082601f8301126116dd57600080fd5b81356116ed848260208601611664565b91505092915050565b60008135905061170581612182565b92915050565b60008151905061171a81612182565b92915050565b60006020828403121561173257600080fd5b6000611740848285016116a2565b91505092915050565b6000806040838503121561175c57600080fd5b600061176a858286016116a2565b925050602061177b858286016116a2565b9150509250929050565b6000806040838503121561179857600080fd5b60006117a6858286016116a2565b92505060206117b7858286016116b7565b9150509250929050565b600080604083850312156117d457600080fd5b60006117e2858286016116a2565b92505060206117f3858286016116f6565b9150509250929050565b60008060006060848603121561181257600080fd5b6000611820868287016116a2565b9350506020611831868287016116f6565b9250506040611842868287016116b7565b9150509250925092565b6000806040838503121561185f57600080fd5b600083013567ffffffffffffffff81111561187957600080fd5b611885858286016116cc565b925050602083013567ffffffffffffffff8111156118a257600080fd5b6118ae858286016116cc565b9150509250929050565b6000602082840312156118ca57600080fd5b60006118d8848285016116f6565b91505092915050565b6000602082840312156118f357600080fd5b60006119018482850161170b565b91505092915050565b60006119168383611922565b60208301905092915050565b61192b81611fe8565b82525050565b61193a81611fe8565b82525050565b600061194b82611f19565b6119558185611f3c565b935061196083611f09565b8060005b83811015611991578151611978888261190a565b975061198383611f2f565b925050600181019050611964565b5085935050505092915050565b6119a78161200c565b82525050565b60006119b882611f24565b6119c28185611f4d565b93506119d2818560208601612051565b6119db81612143565b840191505092915050565b60006119f3602983611f4d565b91507f43726561746f722073686f756c6420626520656e726f6c6c656420696e20746860008301527f652073797374656d2e00000000000000000000000000000000000000000000006020830152604082019050919050565b6000611a59602483611f4d565b91507f49662074686973206973206e6f7420302c2074686572652077617320616e206560008301527f72726f72000000000000000000000000000000000000000000000000000000006020830152604082019050919050565b6000611abf602383611f4d565b91507f45786368616e6765205261746520287363616c6564207570206279203165313860008301527f293a2000000000000000000000000000000000000000000000000000000000006020830152604082019050919050565b6000611b25602783611f4d565b91507f416d6f756e742063616e6e6f742062652067726561746572207468616e20646560008301527f706f736974732e000000000000000000000000000000000000000000000000006020830152604082019050919050565b6000611b8b602083611f4d565b91507f416d6f756e742073686f756c642062652067726561746572207468616e20302e6000830152602082019050919050565b6000611bcb601783611f4d565b91507f496e76616c69642063726561746f7220416464726573730000000000000000006000830152602082019050919050565b6000611c0b602083611f4d565b91507f537570706c7920526174653a20287363616c65642075702062792031653138296000830152602082019050919050565b611c4781612038565b82525050565b6000602082019050611c626000830184611931565b92915050565b600060e082019050611c7d600083018a611931565b8181036020830152611c8f81896119ad565b90508181036040830152611ca381886119ad565b9050611cb26060830187611c3e565b611cbf6080830186611c3e565b611ccc60a0830185611c3e565b611cd960c0830184611c3e565b98975050505050505050565b60006020820190508181036000830152611cff8184611940565b905092915050565b6000602082019050611d1c600083018461199e565b92915050565b600060a0820190508181036000830152611d3c81886119ad565b90508181036020830152611d5081876119ad565b9050611d5f6040830186611c3e565b611d6c6060830185611c3e565b611d79608083018461199e565b9695505050505050565b60006020820190508181036000830152611d9c816119e6565b9050919050565b60006040820190508181036000830152611dbc81611a4c565b9050611dcb6020830184611c3e565b92915050565b60006040820190508181036000830152611dea81611ab2565b9050611df96020830184611c3e565b92915050565b60006020820190508181036000830152611e1881611b18565b9050919050565b60006020820190508181036000830152611e3881611b7e565b9050919050565b60006020820190508181036000830152611e5881611bbe565b9050919050565b60006040820190508181036000830152611e7881611bfe565b9050611e876020830184611c3e565b92915050565b6000602082019050611ea26000830184611c3e565b92915050565b6000604051905081810181811067ffffffffffffffff82111715611ecf57611ece612114565b5b8060405250919050565b600067ffffffffffffffff821115611ef457611ef3612114565b5b601f19601f8301169050602081019050919050565b6000819050602082019050919050565b600081519050919050565b600081519050919050565b6000602082019050919050565b600082825260208201905092915050565b600082825260208201905092915050565b6000611f6982612038565b9150611f7483612038565b9250827fffffffffffffffffffffffffffffffffffffffffffffffffffffffffffffffff03821115611fa957611fa86120b6565b5b828201905092915050565b6000611fbf82612038565b9150611fca83612038565b925082821015611fdd57611fdc6120b6565b5b828203905092915050565b6000611ff382612018565b9050919050565b600061200582612018565b9050919050565b60008115159050919050565b600073ffffffffffffffffffffffffffffffffffffffff82169050919050565b6000819050919050565b82818337600083830152505050565b60005b8381101561206f578082015181840152602081019050612054565b8381111561207e576000848401525b50505050565b6000600282049050600182168061209c57607f821691505b602082108114156120b0576120af6120e5565b5b50919050565b7f4e487b7100000000000000000000000000000000000000000000000000000000600052601160045260246000fd5b7f4e487b7100000000000000000000000000000000000000000000000000000000600052602260045260246000fd5b7f4e487b7100000000000000000000000000000000000000000000000000000000600052604160045260246000fd5b6000601f19601f8301169050919050565b61215d81611fe8565b811461216857600080fd5b50565b61217481611ffa565b811461217f57600080fd5b50565b61218b81612038565b811461219657600080fd5b5056fea26469706673582212204cc215f5c21f88d8de7a9c4475be1ec97617ba1f7ea262fa165bba9e180399a264736f6c63430008000033",
  "linkReferences": {},
  "deployedLinkReferences": {}
}